{
  "_format": "hh-sol-artifact-1",
  "contractName": "Attendance",
  "sourceName": "contracts/Attendance.sol",
  "abi": [
    {
      "inputs": [],
      "stateMutability": "nonpayable",
      "type": "constructor"
    },
    {
      "inputs": [
        {
          "internalType": "address",
          "name": "",
          "type": "address"
        }
      ],
      "name": "attendance",
      "outputs": [
        {
          "internalType": "bool",
          "name": "",
          "type": "bool"
        }
      ],
      "stateMutability": "view",
      "type": "function"
    },
    {
      "inputs": [
        {
          "internalType": "uint256",
          "name": "",
          "type": "uint256"
        }
      ],
      "name": "attendees",
      "outputs": [
        {
          "internalType": "address",
          "name": "",
          "type": "address"
        }
      ],
      "stateMutability": "view",
      "type": "function"
    },
    {
      "inputs": [
        {
          "internalType": "address",
          "name": "student",
          "type": "address"
        }
      ],
      "name": "checkAttendance",
      "outputs": [
        {
          "internalType": "bool",
          "name": "",
          "type": "bool"
        }
      ],
      "stateMutability": "view",
      "type": "function"
    },
    {
      "inputs": [],
      "name": "getAttendees",
      "outputs": [
        {
          "internalType": "address[]",
          "name": "",
          "type": "address[]"
        }
      ],
      "stateMutability": "view",
      "type": "function"
    },
    {
      "inputs": [],
      "name": "getTotalAttendees",
      "outputs": [
        {
          "internalType": "uint256",
          "name": "",
          "type": "uint256"
        }
      ],
      "stateMutability": "view",
      "type": "function"
    },
    {
      "inputs": [],
      "name": "markAttendance",
      "outputs": [],
      "stateMutability": "nonpayable",
      "type": "function"
    },
    {
      "inputs": [],
      "name": "owner",
      "outputs": [
        {
          "internalType": "address",
          "name": "",
          "type": "address"
        }
      ],
      "stateMutability": "view",
      "type": "function"
    }
  ],
  "bytecode": "0x6080604052348015600f57600080fd5b50336000806101000a81548173ffffffffffffffffffffffffffffffffffffffff021916908373ffffffffffffffffffffffffffffffffffffffff1602179055506107438061005f6000396000f3fe608060405234801561001057600080fd5b506004361061007d5760003560e01c80634165a1bb1161005b5780634165a1bb146100ec578063896915321461010a5780638da5cb5b14610128578063e04359e8146101465761007d565b806307df1e52146100825780630e0c353d146100b25780633dc938c1146100e2575b600080fd5b61009c60048036038101906100979190610496565b610176565b6040516100a991906104de565b60405180910390f35b6100cc60048036038101906100c7919061052f565b6101cc565b6040516100d9919061056b565b60405180910390f35b6100ea61020b565b005b6100f4610354565b6040516101019190610644565b60405180910390f35b6101126103e2565b60405161011f9190610675565b60405180910390f35b6101306103ef565b60405161013d919061056b565b60405180910390f35b610160600480360381019061015b9190610496565b610413565b60405161016d91906104de565b60405180910390f35b6000600160008373ffffffffffffffffffffffffffffffffffffffff1673ffffffffffffffffffffffffffffffffffffffff16815260200190815260200160002060009054906101000a900460ff169050919050565b600281815481106101dc57600080fd5b906000526020600020016000915054906101000a900473ffffffffffffffffffffffffffffffffffffffff1681565b600160003373ffffffffffffffffffffffffffffffffffffffff1673ffffffffffffffffffffffffffffffffffffffff16815260200190815260200160002060009054906101000a900460ff1615610298576040517f08c379a000000000000000000000000000000000000000000000000000000000815260040161028f906106ed565b60405180910390fd5b60018060003373ffffffffffffffffffffffffffffffffffffffff1673ffffffffffffffffffffffffffffffffffffffff16815260200190815260200160002060006101000a81548160ff0219169083151502179055506002339080600181540180825580915050600190039060005260206000200160009091909190916101000a81548173ffffffffffffffffffffffffffffffffffffffff021916908373ffffffffffffffffffffffffffffffffffffffff160217905550565b606060028054806020026020016040519081016040528092919081815260200182805480156103d857602002820191906000526020600020905b8160009054906101000a900473ffffffffffffffffffffffffffffffffffffffff1673ffffffffffffffffffffffffffffffffffffffff168152602001906001019080831161038e575b5050505050905090565b6000600280549050905090565b60008054906101000a900473ffffffffffffffffffffffffffffffffffffffff1681565b60016020528060005260406000206000915054906101000a900460ff1681565b600080fd5b600073ffffffffffffffffffffffffffffffffffffffff82169050919050565b600061046382610438565b9050919050565b61047381610458565b811461047e57600080fd5b50565b6000813590506104908161046a565b92915050565b6000602082840312156104ac576104ab610433565b5b60006104ba84828501610481565b91505092915050565b60008115159050919050565b6104d8816104c3565b82525050565b60006020820190506104f360008301846104cf565b92915050565b6000819050919050565b61050c816104f9565b811461051757600080fd5b50565b60008135905061052981610503565b92915050565b60006020828403121561054557610544610433565b5b60006105538482850161051a565b91505092915050565b61056581610458565b82525050565b6000602082019050610580600083018461055c565b92915050565b600081519050919050565b600082825260208201905092915050565b6000819050602082019050919050565b6105bb81610458565b82525050565b60006105cd83836105b2565b60208301905092915050565b6000602082019050919050565b60006105f182610586565b6105fb8185610591565b9350610606836105a2565b8060005b8381101561063757815161061e88826105c1565b9750610629836105d9565b92505060018101905061060a565b5085935050505092915050565b6000602082019050818103600083015261065e81846105e6565b905092915050565b61066f816104f9565b82525050565b600060208201905061068a6000830184610666565b92915050565b600082825260208201905092915050565b7f417474656e64616e636520616c7265616479206d61726b65642e000000000000600082015250565b60006106d7601a83610690565b91506106e2826106a1565b602082019050919050565b60006020820190508181036000830152610706816106ca565b905091905056fea26469706673582212208331a16435db8282cf251de59c2646c2975709a64f4ccf593741dc2e8326c4fc64736f6c634300081c0033",
  "linkReferences": {},
  "deployedLinkReferences": {}
}